:020000040800F2
:1000000090070020310200080B210008131C000893
:10001000092100081B070008B12A000800000000A1
:10002000000000000000000000000000D5250008CE
:1000300093070008000000000D210008EF250008CC
:100040004B0200084B0200084B0200084B0200085C
:100050004B0200084B0200084B0200084B0200084C
:100060004B0200084B0200084B0200084B0200083C
:100070004B0200084B0200084B0200084B0200082C
:100080004B0200084B0200084B0200084B0200081C
:100090004B0200084B0200084B0200084B0200080C
:1000A0004B0200084B0200084B0200084B020008FC
:1000B0004B0200084B0200084B0200084B020008EC
:1000C0004B0200084B0200084B0200084B020008DC
:1000D0004B0200084B0200084B0200084B020008CC
:1000E0004B0200084B0200084B0200084B020008BC
:1000F0004B0200084B0200084B0200084B020008AC
:100100004B0200084B0200084B0200084B0200089B
:100110004B0200084B0200084B0200084B0200088B
:100120004B0200084B0200084B0200084B0200087B
:100130004B0200084B0200084B0200084B0200086B
:100140004B0200084B0200084B0200084B0200085B
:100150004B0200084B0200084B0200084B0200084B
:100160004B0200084B0200084B0200084B0200083B
:100170004B0200084B0200084B0200080000000080
:100180004B0200084B02000800F002F800F041F8B2
:100190000AA090E8000C82448344AAF10107DA45E2
:1001A00001D100F036F8AFF2090EBAE80F0013F0F3
:1001B000010F18BFFB1A43F001031847182C000069
:1001C000382C0000103A24BF78C878C1FAD85207FA
:1001D00024BF30C830C144BF04680C6070470000C1
:1001E0000023002400250026103A28BF78C1FBD840
:1001F000520728BF30C148BF0B607047642900F028
:10020000EB80002070471FB502F0BAFD1FBD10B58E
:1002100010BD00F044FA1146FFF7F5FF02F078FC3C
:1002200000F062FA03B4FFF7F2FF03BC00F06AFAD1
:100230000948804709480047FEE7FEE7FEE7FEE77A
:10024000FEE7FEE7FEE7FEE7FEE7FEE704480549B6
:10025000054A064B70470000652600088901000822
:1002600090010020900700209003002090030020C0
:1002700053EA020C00F069802DE9F04B4FF00006C4
:10028000002B1FBFB3FA83F503FA05F424FA05F631
:100290005E4012BF1643B2FA82F502FA05F4C5F1C8
:1002A00020051EBF22FA05FC44EA0C04203556EA5C
:1002B000044C4FEA144418BF641C4FF000084FF080
:1002C0000009904271EB030C39D3002919BFB1FA30
:1002D00081F701FA07F6B0FA80F700FA07F6C7F1DE
:1002E00020071EBF20FA07FC46EA0C062037B6FBA3
:1002F000F4FCA7EB0507103F07F01F0BCBF120061E
:100300000CFA0BFB2CFA06F644BFB3460026202F4E
:10031000A4BF5E464FF0000B5BEA060C08BF4FF02F
:10032000010B19EB0B09ABFB027C48EB0608C01B69
:1003300006FB02CC0BFB03CC71EB0C01C1E70B46B7
:10034000024641464846BDE8F08B13B54FF0000029
:100350004FF00001AFF30080BDE81C407047000083
:100360000FB41CB5074B06AA7B446946009005985C
:1003700000F07DF90020694600F08CF91CBC5DF8A6
:1003800014FB00002903000070B50446856900686D
:10039000C10601D5302600E02026C00707D070BD79
:1003A000D4E9012130469047206A401C20626D1E2E
:1003B000F6D570BD70B5044685690078C00707D1D1
:1003C00070BDD4E9012120209047206A401C2062A2
:1003D0006D1EF6D570BD00002DE9F04106460024E3
:1003E00010687529314616A510D0AFF3008000289B
:1003F00002DA404213A507E031688A0701D512A549
:1004000002E0490704D511A5012401E0AFF3008003
:1004100000210A2206F1240709E0B0FBF2FCB0FB40
:10042000F2F302FB1C00303078541846491C0028B7
:10043000F3D123462A463046BDE8F04100F0B9B872
:10044000000000002D0000002B0000002000000034
:100450002DE9F0474FF0000A89460446C0F820A075
:100460002046E1688847002876D0252806D0D4E9C0
:1004700001219047206A401C2062F1E7E168204694
:1004800000258847C4F81CA006460027C4F818A019
:100490002A2E09D0304602F033FB38B304EB87082C
:1004A000303EC8F8186019E059F8041B204604EBE8
:1004B00087029161E1688847012F064618D1E069FB
:1004C000002820DA25F020051DE0D8F8180000EB00
:1004D000800006EB40003038C8F818002046E1687C
:1004E0008847064602F00CFB0028EED1012F0AD007
:1004F0002E2E08D12046E16888477F1C0646022F31
:1005000045F02005C4DBA069002803DA404245F02D
:100510000105A061E80701D025F01005B6B1A6F1EC
:100520004100192802D8203645F400654A46314674
:10053000204625604D46FFF761FE58B1012806D0E0
:10054000ED1D25F0070000F1080989E704E005F139
:10055000040985E730468AE7206ABDE8F0874FF056
:10056000000200B5134694469646203922BFA0E803
:100570000C50A0E80C50B1F12001BFF4F7AF09070F
:1005800028BFA0E80C5048BF0CC05DF804EB890000
:1005900028BF40F8042B08BF704748BF20F8022B43
:1005A00011F0804F18BF00F8012B7047704770475B
:1005B00070472DE9F0470D4699469246044600F1F2
:1005C00024080168880604D5E06921F01001216043
:1005D00000E00120A84201DD471B00E00027A169DF
:1005E0007A1902EB0900081AA0612078C00602D42B
:1005F0002046FFF7C9FE002608E0D4E901211AF8D9
:1006000006009047206A401C761C20624E45F4DBB1
:100610002078C0060AD52046FFF7B6FE06E0D4E9EA
:10062000012130209047206A401C2062381EA7F12B
:100630000107F4DC07E0D4E9012118F80500904730
:10064000206A401C2062281EA5F10105F3DC20462B
:10065000FFF7B0FE2078000602D50220BDE8F08743
:100660000120FBE701694A1C02610878704700B568
:100670008FB0CDE901310021059105497944CDE9DB
:10068000031011466846FFF7E3FE0FB000BD0000FF
:10069000E5FFFFFF0A6802F8010B0A607047754624
:1006A00000F02CF8AE4605006946534620F00700DE
:1006B000854618B020B5FFF7C9FDBDE820404FF0D2
:1006C00000064FF000074FF000084FF0000B21F03C
:1006D0000701AC46ACE8C009ACE8C009ACE8C00909
:1006E000ACE8C0098D46704710B50446AFF30080F2
:1006F0002046BDE81040FFF795BD00000048704758
:100700002C01002001491820ABBEFEE726000200A4
:1007100070470321142001F05EBFFEE72DE9F04190
:100720000E46074615460421052000F026F88021D4
:100730000A2001F050FF002405E0395D092002F095
:10074000B9F9641CE4B2B442F7D30321012002F0EA
:10075000B1F9FF24052001F033FE641E14F0FF04FC
:1007600001D04007F6D5222001F02AFE2870212072
:1007700001F026FE6870BDE8F08170B50C460546B4
:1007800001F01EFE20EA04012846BDE8704002F098
:1007900091B9704772B6FEE770B5044600F046F9AD
:1007A0000546601C02D004480078044400F03EF97D
:1007B000401BA042FAD370BD240000202DE9F04F69
:1007C000DFF83492002309F1040A012403250AF119
:1007D000040B87B00F270BF1040E04E104FA03F6B3
:1007E00032407CD0D1F804C0BCF1010F08D0BCF17C
:1007F000020F05D0BCF1110F02D0BCF1120F29D1AC
:10080000D0F808C0CDF800C04FEA430C05FA0CF848
:10081000CDF80CC0DDF800C02CEA080CCDF800C003
:10082000D1F80C80DDF80CC008FA0CF8DDF800C037
:1008300048EA0C08C0F80880D0F8048091F804C099
:1008400028EA0608CCF3001C0CFA03FC4CEA080C5E
:10085000C0F804C0D1F804806FEA080C5FEA8C7C11
:1008600009D1D0F82CC02CEA060CC8F3C0069E4073
:1008700046EA0C06C662D0F80CC04FEA430805FAF7
:1008800008F62CEA060CCDF8148002968E6806FA5B
:1008900008F646EA0C06C6604E68022E01D0122EFB
:1008A00015D1DE0800EB86060396366A4FEA437CD4
:1008B0004FEADC6807FA08FC26EA0C06D1F810C0FB
:1008C0000CFA08FC4CEA060C039EC6F820C0066829
:1008D000DDF808C026EA0C0691F804C000E081E0CB
:1008E000DDF814800CF0030C0CFA08FC4CEA060C42
:1008F000C0F800C04E68F60074D5404ED6F860C00F
:100900004CF0010CC6F860C0366E23F0030C06F004
:10091000010600963A4E66440296D6F808C09E0735
:100920004FEA167807FA08F62CEA060CB0F1904F59
:1009300004D0344EB04203D101261BE0002619E05A
:10094000314EB04201D1022614E0304EB04201D106
:1009500003260FE02E4EB04201D104260AE02D4EB0
:10096000B04201D1052605E02B4EB04201D106264A
:1009700000E0072606FA08F646EA0C06DDF808C08D
:10098000CCF80860D9F80060CC46D1F804809643D2
:100990005FEAC83800D51643CCF80060DAF800608A
:1009A000D446D1F8048096435FEA883800D51643D0
:1009B000CCF80060DBF80060DC46D1F80480964398
:1009C0005FEAC82800D51643CCF80060DEF8006066
:1009D000F446D1F8048096435FEA882800D5164390
:1009E000CCF800605B1C0A6832FA03F67FF4F6AEBE
:1009F00007B000F013B800000004014000100240EE
:100A0000000001400004004800080048000C0048B5
:100A100000100048001400480018004830BCBDE831
:100A2000C08F0AB181617047816270470148806858
:100A300070470000240000200248816802781144B9
:100A40008160704724000020094810B50168002427
:100A500041F480710160032000F064F8002000F090
:100A600009F808B1012401E000F026F8204610BD85
:100A70000020024070B50E4E05460024307898B133
:100A80004FF47A71B1FBF0F00A490968B1FBF0F05C
:100A900000F0E0FF40B9102D06D200222946501E7A
:100AA00000F020F8756000E00124204670BD0000D1
:100AB0002400002030000020094808B5016E41F0F4
:100AC00001010166016E01F001010091816D41F0AB
:100AD00080518165806D00F08050009008BD00005D
:100AE00000100240F0B40E4B1B680C46C3F3022307
:100AF000C3F10705042D00D90425191D072901D2CA
:100B0000002300E0DB1E012606FA05F1491E214004
:100B100099409E40761E16403143F0BC01F0E0BF84
:100B20000CED00E0064900F0070208684FF6FF03ED
:100B3000184040EA0220034A104308607047000052
:100B40000CED00E00000FA051649B0F5007F0868DA
:100B5000C0F3412009D0022805D0086820F4C06005
:100B600040F480600860002070470128FBD00868CE
:100B700020F4C06040F4007008600B483222006826
:100B800050430A4AB0FBF2F0401C00E0401E4A69A4
:100B9000520501D50028F9D148694005E3D5032065
:100BA00070470000007000403000002040420F00FD
:100BB0000248006800F4C060704700000070004008
:100BC0002DE9F84F044600270088E54D3E46010513
:100BD00004F1200B1DD5606E78B1B0F5800F11D0F7
:100BE000B0F5000F04D0B0F5400F22D001270FE080
:100BF000E86840F48030E8601BE00021201D01F02F
:100C000087FA03E00021584601F018FB070010D0D6
:100C10003E462088C00426D5A06EC0B1B0F1807FCA
:100C20001AD0B0F1007F0DD0B0F1407F19D001276C
:100C300018E0D5F88800616E20F440000843C5F83C
:100C40008800E6E7E86840F48030E86009E00021C9
:100C5000201D01F05DFA03E00021584601F0EEFA94
:100C60000746F7B13E46206880033AD5A86D4FF09D
:100C70000008C00009D4A86D40F08050A865A86D98
:100C80004FF0010800F080500090DFF8D8A2DAF8A9
:100C9000001041F48071CAF80010FFF7C7FE8146CA
:100CA00010E0D5F88800A16E20F040700843C5F828
:100CB0008800D8E7FFF7BAFEA0EB0900022801D9A7
:100CC000032705E0DAF80000C005F3D5002F7CD03B
:100CD0004FEA0706B8F1000F03D0A86D20F080504E
:100CE000A8652078C00707D0D5F88800A16B20F050
:100CF00003000843C5F888002078800707D5D5F899
:100D00008800E16B20F00C000843C5F888002078CB
:100D1000400707D5D5F88800216C20F03000084343
:100D2000C5F888002078000707D5D5F88800616CE1
:100D300020F0C0000843C5F888002078C00607D519
:100D4000D5F88800A16C20F440700843C5F88800ED
:100D50002078800607D5D5F88800E16C20F4406043
:100D60000843C5F888002088800507D5D5F8880095
:100D7000E16D20F440200843C5F888002088400534
:100D800007D5D5F88800216E20F440100843C5F837
:100D900088002078400607D5D5F88800216D20F41A
:100DA00040500843C5F888002078000607D5D5F8DC
:100DB0008800616D20F440400843C5F88800208811
:100DC000C00509D5D5F8880000E01CE0A16D20F42D
:100DD00040300843C5F8880020884FF00067800441
:100DE0004FF080684FD5D5F88800E16E20F0406064
:100DF0000843C5F88800E06EB8423CD1E86840F48A
:100E00008010E8603FE0D5F8900010F4407015D0F5
:100E1000D4F88410814211D0D5F89000D5F8901004
:100E200020F4407041F48031C5F89010D5F890104E
:100E300021F48031C5F89010C5F89000C00710D09B
:100E4000FFF7F4FD074641F2883906E0FFF7EEFDB3
:100E5000C11B494501D903263CE7D5F8900080071E
:100E6000F4D5D5F89000D4F8841020F440700843ED
:100E7000C5F890002EE7404505D10121201D01F065
:100E800047F900B106462068000317D5D5F8880059
:100E9000216F20F040600843C5F88800206FB842F9
:100EA00004D1E86840F48010E86007E0404505D1CF
:100EB0000121201D01F02CF900B1064620684003F5
:100EC00017D5D5F88800616F20F040600843C5F859
:100ED0008800606FB84204D1E86840F48010E86090
:100EE00007E0404505D10121201D01F011F900B1B5
:100EF0000646208840041AD5D5F88800A16F20F056
:100F000040500843C5F88800A06FB0F1805F03D05F
:100F1000B0F1005F05D00AE00221201D01F0F8F8D1
:100F200003E00221584601F089F900B10646208805
:100F3000000407D5D5F88800E16F20F08040084311
:100F4000C5F888002068C00307D555F8880FD4F885
:100F5000801020F0004008432860304600F004B8BC
:100F6000001002400070004018BCBDE8E08F000097
:100F70002DE9F0470F46050058D0404E306800F08C
:100F80000700B84209D2306820F0070038433060CB
:100F9000306800F00700B84248D12878384CC007C4
:100FA0002CD06868032811D0022812D0216898B18B
:100FB000490500293ADAA16821F003010143A16043
:100FC000FFF734FD804641F2883910E0216889013D
:100FD000EFE721688903ECE78907EAE7FFF726FDD9
:100FE000A0EB0801494502D90320BDE8F087A068BD
:100FF000696800F00C00B0EB810FEFD12878800712
:1010000005D5A068A96820F0F0000843A06030680A
:1010100000F00700B8420BD9306820F007003843D1
:101020003060306800F00700B84201D00120DCE7F2
:101030002878400705D5A068E96820F4E0600843F7
:10104000A0602878000706D5A068296920F46050C0
:1010500040EAC100A06000F03FF8A168094AC1F36E
:101060000311515C01F01F01C8400749086007489F
:101070000068BDE8F047FFF7FDBC0000002002401B
:10108000001002408C2D00083000002028000020B5
:101090000548064900688968054AC1F30221515C88
:1010A00001F01F01C84070473000002000100240CE
:1010B000CC2D00080548064900688968054AC1F337
:1010C000C221515C01F01F01C84070473000002070
:1010D00000100240CC2D000870B5254900231846A9
:1010E0008A68CC6812F00C0204F00306214C4FEA27
:1010F000640509D00C2A05D0042A32D0082A00D170
:10110000284670BD012E10D10B681B0704D4D1F8FE
:101110009430C3F3032302E00B68C3F30313164EAA
:1011200056F82330DAB10C2AEBD1C86800F003007E
:10113000022818D0032818D01846CA68CB68C2F312
:101140000212C3F306234343521CB3FBF2F2C868F6
:10115000C0F34160401C4000B2FBF0F070BD184687
:1011600070BD204670BD2046E7E72846E5E7000051
:10117000001002400024F4009C2D00082DE9F843E3
:1011800004006FD0FE4DA86800F00C06E86800F07F
:1011900003072078C00664D576B10C2E01D1012F4B
:1011A0000AD0A069002828687AD040F001002860A1
:1011B000FFF73CFC80465DE02868800702D5A06907
:1011C0000028DED0216A2868000703D5286800F0CF
:1011D000F00004E0D5F89400F02202EA10108142F9
:1011E00016D9084601F0AEF800283BD1286840F037
:1011F000080028602868216A20F0F0000843286071
:101200006868E16920F47F4040EA0120686016E0E8
:10121000286840F0080028602868216A20F0F00063
:10122000084328606868E16920F47F4040EA0120B3
:10123000686026B9206A01F085F80028D5D1FFF74B
:101240004BFFA968CF4AC1F30311515C01F01F01A4
:10125000C840CD490860CD480068FFF70BFC002866
:101260007ED12EE0CAE000BFFFF7E0FBA0EB080054
:10127000022876D828688007F6D5286840F008004C
:1012800028602868216A20F0F00008432860686818
:10129000E16920F47F4040EA0120686011E0FFE747
:1012A00020F001002860FFF7C1FB804606E000BF88
:1012B000FFF7BCFBA0EB08000228DAD828688007FB
:1012C000F6D42078C00740D0082E18D00C2E01D1BB
:1012D000032F14D06068B0F5803F17D0B0F5A02F71
:1012E000286817D020F480302860286820F48020F7
:1012F00028606068E0B1FFF799FB804614E0286839
:10130000800322D56068002878D01EE0286840F469
:101310008030EDE740F480202860F7E7FFF786FB98
:10132000A0EB08006428A4D828688003F6D50CE058
:10133000FFF77CFB804605E0FFF778FBA0EB080099
:10134000642896D828688003F6D4207880073BD597
:10135000042E11D00C2E01D1022F0DD0E06801E037
:1013600092E1F1E0002828681ED040F480702860E7
:10137000FFF75CFB07460CE0286840050CD5E068E9
:101380000028C1D008E000BFFFF750FBC01B0228B7
:1013900093D828684005F7D56868217C20F0F8507C
:1013A00040EA016068600FE020F480702860FFF779
:1013B0003DFB074605E000BFFFF738FBC01B0228D6
:1013C000B1D828684005F7D42078000729D560698E
:1013D0000028D5F8940012D040F00100C5F8940020
:1013E000FFF724FB074604E0FFF720FBC01B0228A1
:1013F00099D8D5F894008007F6D512E000E120F0E6
:101400000100C5F89400FFF711FB074605E000BF97
:10141000FFF70CFBC01B022885D8D5F89400800785
:10142000F6D42078400766D5A86D0027C00008D400
:10143000A86D40F08050A865A86D012700F080508D
:10144000009053480168C90512D40168814641F4EF
:1014500080710160FFF7EAFA804605E0FFF7E6FADF
:10146000A0EB080002286FD8D9F80000C005F5D518
:10147000A068012816D00528D5F8900017D020F0D4
:101480000100C5F89000D5F8900020F0040000BFDE
:10149000C5F89000A06841F28839C0B1FFF7C6FADC
:1014A00080460FE0D5F8900040F00100F0E740F0F2
:1014B0000400C5F89000F5E7FFF7B8FAA0EB0801C3
:1014C000494541D8D5F890008007F5D50EE0FFF7E3
:1014D000ADFA804606E000BFFFF7A8FAA0EB0801CE
:1014E000494531D8D5F890008007F5D41FB1A86DD3
:1014F00020F08050A865A06A38B302280AD00C2ECC
:101500007ED0286820F080702860286810F0205F66
:1015100077D0AAE0E868E26A00F0030191422BD19B
:10152000216B00F0700209011039914224D1626BE5
:1015300000F4FE41B1EB022F1ED1A26B00F400318A
:10154000072A03D0012202E09DE089E000229142B7
:1015500012D1A18F00F4C00249084905A1F500117C
:10156000914209D194F8401000F0C0604908490642
:10157000A1F1007181425CD00C2E41D0286809E0B5
:10158000001002408C2D00083000002028000020B0
:101590000070004040017ED42868C0007BD42868D9
:1015A00020F080702860FFF741FA064605E000BF92
:1015B000FFF73CFA801B022865D828688001F7D421
:1015C000D4E90B016FF00F0202EB01110843A18F68
:1015D0005204490802EB4151626B41EA022108437F
:1015E00094F840104FF07E42490802EB41610843F5
:1015F000A16B090940EA4140E968284A114001E02D
:1016000049E02EE00843E860286840F080702860D8
:10161000E86840F08070E860FFF708FA044604E0EC
:10162000FFF704FA001B02282DD828688001F7D59F
:101630002FE0286880012CD4286840F08070286052
:10164000E86840F08070E860FFF7F0F9044604E0D5
:10165000FFF7ECF9001B022815D828688001F7D5A0
:1016600017E0E86820F00300E860E8680C490840EB
:10167000E860FFF7DBF9044608E000BFFFF7D6F9A2
:10168000001B022802D90320BDE8F88328688001E6
:10169000F4D40020F8E70120F6E700008C809DF9E3
:1016A000FFFFEEFE70B5040009D0606A002540B16E
:1016B00025616561A56294F85D0040B10CE00120F0
:1016C00070BD6068B0F5827FF4D0E561F2E784F820
:1016D0005C50204600F056F8022084F85D00206837
:1016E000016821F040010160E1684FF4E06291423D
:1016F00001D9002001E04FF48050B1F5706F02D0A5
:10170000914200D0A562A188228901F4827102F47D
:1017100004421143227C02F002021143227D02F0B6
:1017200001021143228B02F400721143227F02F066
:101730003802114394F8202002F080021143228DD8
:1017400002F40052114322681160A169042202EAE6
:10175000114194F8242000F4805002F0100211434B
:1017600094F8342002F008021143A28902F4706256
:1017700011430143206841602566012084F85D0023
:10178000002070BD10B586B0044614216846FEF7EF
:10179000E6FE1349206888421FD11248816D41F44A
:1017A00000418165816D01F400410591C16C41F0FA
:1017B0000401C164C06C694600F0040005904FF458
:1017C000E05000900220019000200290032003903E
:1017D000062004900448FEF7F1FF06B010BD00009B
:1017E000003C004000100240000800482DE9F05F76
:1017F000044690F85C0000270A9E1D4692468B46E0
:101800004FF0010901280ED0012084F85C00FFF799
:101810000DF9804694F85D00616801280CD0B1F59F
:10182000827F07D102E0022000F011B9A16809B956
:10183000042801D0022700E1BBF1000F24D0BAF147
:10184000000F21D005B394F85D00042802D00520D4
:1018500084F85D0000202066C4F840A0A4F846503B
:10186000A4F84450C4F838B0E587A587E064206543
:10187000E0684FF4E061884201D8012D06D9206864
:10188000426822F4805205E00127D6E020684268D1
:1018900042F48052426020680268520603D4026813
:1018A00042F040020260E0688842606845D908B1B1
:1018B000012D3AD1A06B21680088C860A06B801C04
:1018C000A063E08F401EE0872FE0206881688907D1
:1018D0000FD5E18F69B1B9F1010F0AD1A16B098868
:1018E000C160A06B801CA063E08F401EE0874FF0BA
:1018F000000920688168C9070FD0B4F8461061B1AB
:10190000C068216C0880206C801C2064B4F84600FC
:10191000401EA4F846004FF00109FFF787F8A0EB3E
:101920000800B04201D3701C75D1E08F0028CCD1E3
:10193000B4F846000028C8D176E008B1012D6CD17A
:10194000E08F0128A06B08D921680088C860A06BCF
:10195000801CA063E08F801E07E021680078087378
:10196000A06B401CA063E08F401EE08755E020681C
:10197000816889071AD5E18FC1B1B9F1010F15D17D
:10198000E18F0129A16B07D90988C160A06B801C78
:10199000A063E08F801E06E009780173A06B401CF5
:1019A000A063E08F401EE0874FF000092068816847
:1019B000C90728D0B4F8461029B3B4F84610012955
:1019C00014D9C068216C0880206C801C2064B4F895
:1019D0004600801EA4F84600B4F84600012810D83E
:1019E0002068416841F4805141600AE0007B216C2D
:1019F0000870206C401C2064B4F84600401EA4F817
:101A000046004FF00109FFF711F8A0EB0800B042C3
:101A100002D3701C01D018E0BEB1E08F0028A6D11F
:101A2000B4F846000028A2D142463146204600F0D4
:101A3000DFFC10B1012720202066012084F85D0022
:101A4000002084F85C003846EEE60327F5E730BC5A
:101A5000BDE8C09F10B5401EB0F1807F01D30120CA
:101A600010BD4FF0E02460610F21601701F038F8DD
:101A70000020A06107202061002010BD10B50400E7
:101A800002D0A06F10B107E0012010BD002084F843
:101A90007400204600F026F82420A0672068016822
:101AA00021F001010160204600F08CFE0128ECD0FD
:101AB000606A10B1204600F0F3FD2068416821F40F
:101AC000904141602068816821F02A01816020688E
:101AD000016841F0010101602046BDE8104000F0BE
:101AE00043BE000030B5A9B00446142122A8FEF779
:101AF00036FD88216846FEF732FD16492068884287
:101B000026D1002502240F9568460094FFF758F867
:101B100008B1FEF73FFE1048816D41F40031816548
:101B2000816D01F400312791C16C41F00101C16464
:101B3000C06C22A900F0010027900C2081E8310040
:101B400003202590072026904FF09040FEF736FEA8
:101B500029B030BD00440040001002402DE9F84398
:101B60000446806F1F4616460D4620284FD1CDB142
:101B7000C6B194F87400012849D0012084F874009B
:101B80004FF00008C4F880802120A067FEF74EFFC8
:101B9000A4F850608146A4F85260A068B0F5805F58
:101BA00003D004E00120BDE8F883206928B12E4667
:101BB0005FF0000584F8748010E00026FAE78021C9
:101BC000204600F023FFB8B9C6B116F8010B216812
:101BD0000885B4F85200401EA4F85200B4F8520030
:101BE0004B464FF0000200970028E8D14FF040012B
:101BF000204600F00BFF30B10320D4E735F8020B8C
:101C0000C0F30800E3E72020A0670020CBE7022014
:101C1000C9E7FEE77CB50446002529460D2000F003
:101C200049FF932020702020607001A82346009077
:101C3000022219460C2000F0C7F8010009D1225CED
:101C4000401C5540C0B20428F9D3205CA84200D003
:101C5000022108467CBD30B585B08DF804008DF8B2
:101C60000510002001A9145C0D18401CC0B2AC7016
:101C70000628F8D300200C181A5C401CC0B222724F
:101C80000428F8D304A800900B460C220E2000F084
:101C90009BF8040004D1082000F092FB000700D458
:101CA000022405B0204630BD0EB550208DF804004A
:101CB00000208DF805000DF10602022101A8FEF7B3
:101CC0002DFD02A801AB0090042219460C2000F063
:101CD0007BF80EBD10B500F04AF88D212A2000F0E7
:101CE000E9FE3E212B2000F0E5FE1E212D2000F014
:101CF000E1FE00212C2000F0DDFE4021152000F047
:101D0000D9FE3D21112000F0D5FEBDE81040FEF7C0
:101D100000BD1CB50C46302121706070A21C022150
:101D20002046FEF7FBFC01A823460090042219463A
:101D30000C2000F049F810B90199902900D0022038
:101D40001CBD7CB50C46054607210D2000F0B2FEF7
:101D5000257001A823460090012219460C2000F0AE
:101D600033F810B90199102900D002207CBD0F2151
:101D7000012000F09FBE10B586B093218DF80410AD
:101D800070218DF80510002101AA435C5418491CEC
:101D9000C9B2A3700529F8D3072101A8D21DFEF707
:101DA000BDFC04A801AB0090092219460C2000F0EC
:101DB0000BF810B90498182802D0002006B010BD06
:101DC0009DF80400FAE700002DE9FF5F00260227D6
:101DD000DDF838A015468B468146B0460C2805D064
:101DE000B9F10E0F05D11226102001E07726302020
:101DF000804646F08001022000F05CFE8021042035
:101E0000FEF7BBFC80210A2000F0E5FB0021012049
:101E100000F050FE002405E01BF80410092000F03B
:101E200049FE641CAC42F7D34946012000F042FE53
:101E3000B9F10C0F03D180210D2000F0CCFB4FF441
:101E4000FA65042000F0BCFA04466D1E04D0E007D9
:101E500002D114EA080FF4D080210D20FEF78DFC8A
:101E600041F288387DB3062000F0AAFA10F01B0F6B
:101E700007D0434636221EA12B48FFF76FFE0227EC
:101E800031E000273440E00700D00127B9F10C0F02
:101E900029D10A2000F094FA04460C2000F090FAB0
:101EA00010F007004FEAC40101D008390144CAF814
:101EB000001024B1102C04D91024002504E00124C2
:101EC000FBE7002506E008E0092000F079FA039915
:101ED00048556D1CA542F7D305E04346172213A1D0
:101EE0001148FFF73BFE04B0384600F02BB8000065
:101EF0007E7E7E20627566666572206F766572668C
:101F00006C6F772C20636F6C6C6572722C2063721F
:101F1000636572722C206F722070726F7465636FCC
:101F20006C6572720D0A0000980000207E7E7E2093
:101F3000726571756573742074696D6564206F7561
:101F4000740D0A0030BCBDE8C09F70B588B00D4666
:101F5000A0218DF8041001AC8DF805000221204667
:101F6000A21CFEF7DBFB06AE01AB042219460C20D7
:101F70000096FFF729FF28BB0698042822D19DF878
:101F8000040000F00F000A281CD10020295C215415
:101F9000401CC0B21028F9D305AA102101A8FEF7F1
:101FA000BDFB01AB122219460C200096FFF70CFF77
:101FB00040B90699042905D19DF8041001F00F01DC
:101FC0000A2900D0022008B070BD00002DE9F041C0
:101FD00086B014216846FEF7C2FA2848C16C41F069
:101FE0000401C164C16C01F004010591C16C41F0B0
:101FF0008001C164C16C01F080010591C16C41F0A8
:102000000101C164C16C01F001010591C16C41F095
:102010000201C164C06C4FF0904700F002000590CF
:10202000002220213846FEF7FCFCDFF854804FF4F4
:10203000A076002231464046FEF7F3FC00244FF420
:102040000050CDE90004694640460294FEF7B6FB15
:10205000202000900125CDE90154694638460394BB
:10206000FEF7ACFB0096CDE9015469464046039467
:10207000FEF7A4FB06B0BDE8F081000000100240AE
:1020800000080048114810B50F4901604FF48271F3
:10209000416000214FF4E062C0E902124FF4007287
:1020A0000161C0E905122822C0E907210722416227
:1020B000C0E90A12016308214163FFF7F3FA00281F
:1020C00001D072B6FEE710BD003C00403400002095
:1020D0000C4810B50A4901604FF4E131416000211C
:1020E00081600C22C160C0E904128161C16101629A
:1020F0004162FFF7C3FC002801D072B6FEE710BDB5
:102100000044004098000020FEE7FEE77047000012
:102110002DE9F041444C05468846E06800268107D9
:1021200028680DD0E16801F00301814216D1A8B101
:10213000E0686968C0F30210401C88420ED120E0BC
:10214000012804D0022805D0032807D108E021681F
:10215000890701E021684905002907DB01265FE0C6
:102160002168890302D421684903F5E7E1686A68B8
:102170006FF00F0321F0730103EB021211430143CF
:10218000E160206820F080602060FEF74FFC074689
:1021900005E000BFFEF74AFCC01B022837D82068C4
:1021A0000001F7D4B8F1000F18D0B8F1010F1ED01C
:1021B000287D4FF07E41400801EB4060A96840EA6D
:1021C00001202169194A114008432061206840F02C
:1021D00080602060FEF72AFC07461AE0A868E968DC
:1021E0000002090940EA41402169114AEBE7288AC7
:1021F0001049400801EB4050A96840EA01202169DC
:102200000D4AE0E7FEF712FCC01B022801D90326A5
:1022100006E020680001F5D52069A969084320611E
:102220003046BDE8F081000000100240FF80FFF959
:10223000FF80FDFF0000E0FFFF809FFF2DE9F041E0
:102240003D4C06468846E0680025810730680DD081
:10225000E16801F00301814216D1A8B1E06871681C
:10226000C0F30210401C88420ED120E0012804D0A7
:10227000022805D0032807D108E02168890701E07A
:1022800021684905002907DB012551E02168890300
:1022900002D421684903F5E7E16872686FF00F0323
:1022A00021F0730103EB021211430143E160206846
:1022B00020F080502060FEF7B9FB074605E000BF24
:1022C000FEF7B4FBC01B022829D820688000F7D491
:1022D000B8F1000F15D0307C4FF07E41400801EB83
:1022E0004060B16840EA01206169144A1140084326
:1022F0006061206840F080502060FEF797FB074641
:102300000FE0B068F1680002090940EA41406169E4
:102310000B4AEBE7FEF78AFBC01B022801D9032515
:1023200006E020688000F5D5606971690843606146
:102330002846BDE8F081000000100240FF80FFF950
:10234000FF80FDFFF8B51C4D06460024A86DC000B7
:1023500002D5FEF72DFC0DE0A86D40F08050A86579
:10236000A86D00F080500090FEF722FCA96D21F0CE
:102370008051A965B0F5007F04D0802E07D94FF0B9
:1023800003040AE0802E08D9A02E01D804E001D170
:10239000022402E0702E00D101240848016821F0D7
:1023A000070121430160006800F00700A04201D04E
:1023B0000120F8BD0020F8BD0010024000200240BE
:1023C00010B50A4C216821F0400121607E2101EA0C
:1023D000400040F0800000F0C3FC002000F0C0FC92
:1023E000216841F04001216010BD00001408004840
:1023F000F8B515460E460B460092044600224FF4EF
:10240000C05100F019F888B93346002280212046D7
:10241000009500F07BF848B9334600224FF4C061C4
:102420002046009500F008F8002804D0206E40F007
:10243000200020660320F8BD2DE9FC479946174689
:102440000E4604460A9DFEF7F1FA411BA9EB010571
:10245000FEF7ECFA80462A484FF4C06A0068C0EBE9
:10246000C00000EB8000000D6843009040E056453E
:1024700002D10FB9007B0190B9F1FF3F38D0FEF7D0
:10248000D5FAA0EB0800A84203D215B1009860B3BA
:102490002CE02068416821F0E00141606068B0F5FF
:1024A000827F0BD1A068B0F5004F02D0B0F5806FED
:1024B00004D12068016821F040010160A06AB0F5F4
:1024C000005F09D12068016821F400510160206893
:1024D000016841F400510160012084F85D00002092
:1024E00084F85C00032000F00DB80025401E009029
:1024F000206881683140B942B9D10020F3E700007B
:10250000300000200CBCBDE8F08700002DE9F84346
:102510001E46914688460446089DFEF787FA401BF2
:10252000351AFEF783FA074625480068C0F3CB301A
:10253000684338E0701C37D0FEF778FAC01BA84219
:1025400003D215B1009860B32CE02068416821F0F7
:10255000E00141606068B0F5827F0BD1A068B0F502
:10256000004F02D0B0F5806F04D12068016821F0DF
:1025700040010160A06AB0F5005F09D120680168E0
:1025800021F4005101602068016841F400510160AC
:10259000012084F85D00002084F85C000320BDE881
:1025A000F8830025401E00902068816838EA010009
:1025B00004D000214945BDD10020F0E70121F9E711
:1025C000300000200248016841F04001016070477E
:1025D00014080048704770B50C460546FFF7F0FE3A
:1025E00040EA04012846BDE8704000F063BAFEF7F7
:1025F00023BA00B597B044216846FDF7B0FF142117
:1026000011A8FDF7ACFF4FF40070FEF79DFA08B17A
:1026100072B6FEE70220C1010391102100900491DF
:102620000A900121CDE90B010A210D910721CDE985
:102630000E1010906846FEF7A1FD08B172B6FEE7D5
:102640000F201190032012900020139014901590E9
:10265000042111A8FEF78CFC002801D072B6FEE719
:1026600017B000BD0B48016841F4700101600A48D1
:10267000016841F001010160002181600268074B9F
:102680001A4002608214C260026822F48022026052
:102690008161704788ED00E000100240FFFFF6EA1C
:1026A00090F82410C90706D001684A68836A22F4AA
:1026B00000321A434A6090F82410890706D5016851
:1026C0004A68C36A22F480321A434A6090F82410A0
:1026D000490706D501684A68036B22F480221A4331
:1026E0004A6090F82410090706D501684A68436BD0
:1026F00022F400421A434A6090F82410C90606D515
:1027000001688A68836B22F480521A438A6090F8C9
:102710002410890606D501688A68C36B22F400522A
:102720001A438A6090F82410490611D501684A6856
:10273000036C22F480121A434A60016CB1F5801FC9
:1027400006D101684A68436C22F4C0021A434A6009
:1027500090F82410090606D501684A68806C22F4B6
:10276000002202434A607047F8B500260446C0F8CC
:102770008060FEF75BF90546206800686FF07E47D1
:10278000000708D52B4600224FF400112046009781
:1027900000F03CF960B92068006840070AD52B4674
:1027A00000224FF480012046009700F02FF908B175
:1027B0000320F8BD2020A067E067266684F87460D7
:1027C0000020F8BD2DE9F0410446016880682269C7
:1027D000E3691043626900251A431043814F0A6878
:1027E000814B1A4002430A6020684168E26821F484
:1027F0004051114341602168A069B94201D0226A69
:1028000010438A6822F4306202438A607749226862
:1028100077488A420DD1D0F8880010F0030006D026
:10282000012866D0022854D0032851D163E001204A
:102830004FE070498A420BD1D0F8880010F00C00AC
:1028400047D0042845D0082851D00C2840D152E068
:1028500069498A420BD1D0F8880010F0300038D096
:10286000102846D0202842D0302831D143E0634997
:102870008A420BD1D0F8880010F0C00029D040283F
:1028800037D0802833D0C02822D134E05C498A4236
:102890000ED1D0F8880010F440701AD0B0F5807FC7
:1028A00027D0B0F5007F22D0B0F5407F10D122E0D4
:1028B000BA420DD1D0F8880010F4406009D0B0F5CC
:1028C000806F16D0B0F5006F11D0B0F5406F12D008
:1028D00010204C4900264FF40043BA422CD160B17D
:1028E00002280DD004280DD008286FD10EE0022058
:1028F000EFE70420EDE70820EBE7FEF7C9FB03E074
:102900000B4603E0FEF7E8FB030066D0626802EBCB
:10291000420098425AD8B3EB023F57D8190E1B0217
:102920005008181871410023FDF7A2FC364AA0F5A3
:10293000407191424FD949E0E2694FF6EF779A42F0
:1029400028D1092842D2DFE800F005080D412241D4
:1029500041410E00FEF79CFB01E0FEF7ABFB0300DC
:1029600001D13AE00B466068590001EB5001B1FB20
:10297000F0F080B2A0F11001B94227D84FF6F07103
:102980000140C0F3420001432068C16025E0FEF72A
:10299000A3FBE4E7092819D2DFE800F005080D18C9
:1029A0001A1818180E00FEF773FB01E0FEF782FB01
:1029B000030001D111E00B46606803EB5001B1FB4D
:1029C000F0F080B2A0F11001B94204D9012504E071
:1029D000FEF782FBECE72168C86066662846A666BB
:1029E000BDE8F08100800040F369FFEF003801404E
:1029F000001002400044004000480040004C0040ED
:102A0000005000400024F400FFFC0F002DE9F047C7
:102A10009A4617460E4604464FF000094FF020082C
:102A2000089D39E0681C37D0FEF700F8A0EB0A00DB
:102A3000A84222D80DB32068016849072CD5C06987
:102A4000C043000528D421684FF400600862206864
:102A5000016821F4D07101602068816821F00101D2
:102A60008160C4F87880C4F87C80C4F8808000BF9E
:102A700084F874900320BDE8F0872068016821F491
:102A8000D07101602068816821F001018160C4F883
:102A90007880C4F87C80EBE72068C06936EA0000E3
:102AA00004D00020B842BDD00020E4E70120F9E7BF
:102AB000FEE7000070B5094C0D46216821F0400189
:102AC00021607E2101EA400000F04AF9284600F02A
:102AD00047F9206840F04000206070BD14080048AD
:102AE0000907090E002804DB00F1E02080F800143B
:102AF000704700F00F0000F1E02080F8141D7047CF
:102B000030380A2801D201207047002070470000A9
:102B100088B0FDF799FFFFF76CFDFFF757FAFFF755
:102B2000B1FAFFF7D5FAFFF74DFDFFF7D3F861488B
:102B3000016841F01001016041F288352B461922ED
:102B40005DA16348FFF70AF8614E0027614C8436A7
:102B500002A92620FFF7F5F890B92B4618225EA1AE
:102B60005B48FEF7FBFF2B46102261A15848FEF799
:102B7000F5FF9DF808102B4608225548FEF7EEFF9A
:102B800002A8FFF747F80028E2D12B4619225CA1E2
:102B90004F48FEF7E3FF9DF80B109DF80A00CDE9C2
:102BA00000019DF809309DF808205CA106A8FDF7FA
:102BB000D7FB2B46122206A94548FEF7CFFF02A8F5
:102BC000FFF7D9F801206060424A217902AB083250
:102BD0006020FFF740F80028207922D03D4AC1B29A
:102BE00002AB0E326120FFF736F8002840D02B46AA
:102BF00013224FA13648FEF7B1FF6068401C6060A9
:102C00000328E1DB2B4608224EA13148FEF7A6FF40
:102C1000FFF74AF8FFF75EF84FF4FA60FDF7BCFDE6
:102C200096E72C49C0B21431FFF78FF90028E4D1A0
:102C3000274920798431FFF76CF828B92B460A22FE
:102C400043A12348FEF78AFF276020682B463118EE
:102C500001221F48FEF782FF2B4601223FA11C489C
:102C6000FEF77CFF2068401C20601028EDDBC4E7E5
:102C7000184920791431FFF768F90028BDD11449AB
:102C800020798431FFF745F80028B6D12760206805
:102C90002B46311801220E48FEF760FF2B46012219
:102CA0002EA10B48FEF75AFF2068401C2060102818
:102CB000EDDBA2E7140800480A0D53657269616CE8
:102CC00020436F6E6E65637465642E2E2E0A0D00B0
:102CD00098000020000000200A0D7E7E7E204361C7
:102CE0007264206465746563746564210A0D000074
:102CF000436172642054797065203A200A0D000007
:102D00000A0D54686520636172642773206E756DC7
:102D10006265722069733A0A0D0000002533643A37
:102D20002533643A2533643A2533640A0D000000E4
:102D30000A0D4B657973206172652077726F6E673B
:102D40002E0A0D000A0D456E642E0A0D00000000CB
:102D50000A0D20626C6F636B0A0D00003A000000E0
:102D600001B582B04FF0FF300090012301AA02A903
:102D70000248FEF73BFD9DF804000EBD3400002024
:102D80004FF04070E1EE100A7047000000000000B4
:102D9000000000000102030406070809A0860100E4
:102DA000400D0300801A060000350C0040420F0061
:102DB00080841E0000093D0000127A000024F40007
:102DC00000366E010048E801006CDC0200000000E3
:102DD00001020304F42D000800000020340000006C
:102DE000C4010008282E0008340000205C07000001
:102DF000E00100080000000000000000FFFFFFFFEE
:102E0000FFFFFFFFFFFFFFFF34312E2E46180000AB
:102E10003929382D42414A420100000010000000CB
:082E20000000000000093D0064
:040000050800018965
:00000001FF
